{"abi":[{"type":"constructor","inputs":[],"stateMutability":"nonpayable"},{"type":"fallback","stateMutability":"payable"},{"type":"receive","stateMutability":"payable"},{"type":"function","name":"AMOUNT","inputs":[],"outputs":[{"name":"","type":"uint256","internalType":"uint256"}],"stateMutability":"view"},{"type":"function","name":"allowance","inputs":[{"name":"owner","type":"address","internalType":"address"},{"name":"spender","type":"address","internalType":"address"}],"outputs":[{"name":"","type":"uint256","internalType":"uint256"}],"stateMutability":"view"},{"type":"function","name":"approve","inputs":[{"name":"spender","type":"address","internalType":"address"},{"name":"value","type":"uint256","internalType":"uint256"}],"outputs":[{"name":"","type":"bool","internalType":"bool"}],"stateMutability":"nonpayable"},{"type":"function","name":"balanceOf","inputs":[{"name":"account","type":"address","internalType":"address"}],"outputs":[{"name":"","type":"uint256","internalType":"uint256"}],"stateMutability":"view"},{"type":"function","name":"decimals","inputs":[],"outputs":[{"name":"","type":"uint8","internalType":"uint8"}],"stateMutability":"view"},{"type":"function","name":"mint","inputs":[{"name":"_amount","type":"uint256","internalType":"uint256"}],"outputs":[],"stateMutability":"payable"},{"type":"function","name":"name","inputs":[],"outputs":[{"name":"","type":"string","internalType":"string"}],"stateMutability":"view"},{"type":"function","name":"owner","inputs":[],"outputs":[{"name":"","type":"address","internalType":"address"}],"stateMutability":"view"},{"type":"function","name":"renounceOwnership","inputs":[],"outputs":[],"stateMutability":"nonpayable"},{"type":"function","name":"symbol","inputs":[],"outputs":[{"name":"","type":"string","internalType":"string"}],"stateMutability":"view"},{"type":"function","name":"totalSupply","inputs":[],"outputs":[{"name":"","type":"uint256","internalType":"uint256"}],"stateMutability":"view"},{"type":"function","name":"transfer","inputs":[{"name":"to","type":"address","internalType":"address"},{"name":"value","type":"uint256","internalType":"uint256"}],"outputs":[{"name":"","type":"bool","internalType":"bool"}],"stateMutability":"nonpayable"},{"type":"function","name":"transferFrom","inputs":[{"name":"from","type":"address","internalType":"address"},{"name":"to","type":"address","internalType":"address"},{"name":"value","type":"uint256","internalType":"uint256"}],"outputs":[{"name":"","type":"bool","internalType":"bool"}],"stateMutability":"nonpayable"},{"type":"function","name":"transferOwnership","inputs":[{"name":"newOwner","type":"address","internalType":"address"}],"outputs":[],"stateMutability":"nonpayable"},{"type":"event","name":"Approval","inputs":[{"name":"owner","type":"address","indexed":true,"internalType":"address"},{"name":"spender","type":"address","indexed":true,"internalType":"address"},{"name":"value","type":"uint256","indexed":false,"internalType":"uint256"}],"anonymous":false},{"type":"event","name":"OwnershipTransferred","inputs":[{"name":"previousOwner","type":"address","indexed":true,"internalType":"address"},{"name":"newOwner","type":"address","indexed":true,"internalType":"address"}],"anonymous":false},{"type":"event","name":"Transfer","inputs":[{"name":"from","type":"address","indexed":true,"internalType":"address"},{"name":"to","type":"address","indexed":true,"internalType":"address"},{"name":"value","type":"uint256","indexed":false,"internalType":"uint256"}],"anonymous":false},{"type":"error","name":"AmazonCoin__NotEnoughBalance","inputs":[]},{"type":"error","name":"ERC20InsufficientAllowance","inputs":[{"name":"spender","type":"address","internalType":"address"},{"name":"allowance","type":"uint256","internalType":"uint256"},{"name":"needed","type":"uint256","internalType":"uint256"}]},{"type":"error","name":"ERC20InsufficientBalance","inputs":[{"name":"sender","type":"address","internalType":"address"},{"name":"balance","type":"uint256","internalType":"uint256"},{"name":"needed","type":"uint256","internalType":"uint256"}]},{"type":"error","name":"ERC20InvalidApprover","inputs":[{"name":"approver","type":"address","internalType":"address"}]},{"type":"error","name":"ERC20InvalidReceiver","inputs":[{"name":"receiver","type":"address","internalType":"address"}]},{"type":"error","name":"ERC20InvalidSender","inputs":[{"name":"sender","type":"address","internalType":"address"}]},{"type":"error","name":"ERC20InvalidSpender","inputs":[{"name":"spender","type":"address","internalType":"address"}]},{"type":"error","name":"OwnableInvalidOwner","inputs":[{"name":"owner","type":"address","internalType":"address"}]},{"type":"error","name":"OwnableUnauthorizedAccount","inputs":[{"name":"account","type":"address","internalType":"address"}]}],"bytecode":{"object":"0x60806040523480156200001157600080fd5b50336040518060400160405280600a81526020016920b6b0bd37b721b7b4b760b11b81525060405180604001604052806002815260200161414360f01b8152508160039081620000629190620001ae565b506004620000718282620001ae565b5050506001600160a01b038116620000a357604051631e4fbdf760e01b81526000600482015260240160405180910390fd5b620000ae81620000b5565b506200027a565b600580546001600160a01b038381166001600160a01b0319831681179093556040519116919082907f8be0079c531659141344cd1fd0a4f28419497f9722a3daafe3b4186f6b6457e090600090a35050565b634e487b7160e01b600052604160045260246000fd5b600181811c908216806200013257607f821691505b6020821081036200015357634e487b7160e01b600052602260045260246000fd5b50919050565b601f821115620001a9576000816000526020600020601f850160051c81016020861015620001845750805b601f850160051c820191505b81811015620001a55782815560010162000190565b5050505b505050565b81516001600160401b03811115620001ca57620001ca62000107565b620001e281620001db84546200011d565b8462000159565b602080601f8311600181146200021a5760008415620002015750858301515b600019600386901b1c1916600185901b178555620001a5565b600085815260208120601f198616915b828110156200024b578886015182559484019460019091019084016200022a565b50858210156200026a5787850151600019600388901b60f8161c191681555b5050505050600190811b01905550565b6109e2806200028a6000396000f3fe6080604052600436106100d55760003560e01c80638da5cb5b11610079578063a9059cbb11610056578063a9059cbb1461022f578063d17891761461024f578063dd62ed3e14610269578063f2fde38b146102af57005b80638da5cb5b146101df57806395d89b4114610207578063a0712d681461021c57005b806323b872dd116100b257806323b872dd14610158578063313ce5671461017857806370a0823114610194578063715018a6146101ca57005b806306fdde03146100de578063095ea7b31461010957806318160ddd1461013957005b366100dc57005b005b3480156100ea57600080fd5b506100f36102cf565b60405161010091906107f3565b60405180910390f35b34801561011557600080fd5b5061012961012436600461085e565b610361565b6040519015158152602001610100565b34801561014557600080fd5b506002545b604051908152602001610100565b34801561016457600080fd5b50610129610173366004610888565b61037b565b34801561018457600080fd5b5060405160128152602001610100565b3480156101a057600080fd5b5061014a6101af3660046108c4565b6001600160a01b031660009081526020819052604090205490565b3480156101d657600080fd5b506100dc61039f565b3480156101eb57600080fd5b506005546040516001600160a01b039091168152602001610100565b34801561021357600080fd5b506100f36103b3565b6100dc61022a3660046108e6565b6103c2565b34801561023b57600080fd5b5061012961024a36600461085e565b6103fe565b34801561025b57600080fd5b5061014a655af3107a400081565b34801561027557600080fd5b5061014a6102843660046108ff565b6001600160a01b03918216600090815260016020908152604080832093909416825291909152205490565b3480156102bb57600080fd5b506100dc6102ca3660046108c4565b61040c565b6060600380546102de90610932565b80601f016020809104026020016040519081016040528092919081815260200182805461030a90610932565b80156103575780601f1061032c57610100808354040283529160200191610357565b820191906000526020600020905b81548152906001019060200180831161033a57829003601f168201915b5050505050905090565b60003361036f81858561044c565b60019150505b92915050565b60003361038985828561045e565b6103948585856104dc565b506001949350505050565b6103a761053b565b6103b16000610568565b565b6060600480546102de90610932565b6103d2655af3107a400082610982565b34146103f157604051631410e41f60e21b815260040160405180910390fd5b6103fb33826105ba565b50565b60003361036f8185856104dc565b61041461053b565b6001600160a01b03811661044357604051631e4fbdf760e01b8152600060048201526024015b60405180910390fd5b6103fb81610568565b61045983838360016105f4565b505050565b6001600160a01b0383811660009081526001602090815260408083209386168352929052205460001981146104d657818110156104c757604051637dc7a0d960e11b81526001600160a01b0384166004820152602481018290526044810183905260640161043a565b6104d6848484840360006105f4565b50505050565b6001600160a01b03831661050657604051634b637e8f60e11b81526000600482015260240161043a565b6001600160a01b0382166105305760405163ec442f0560e01b81526000600482015260240161043a565b6104598383836106c9565b6005546001600160a01b031633146103b15760405163118cdaa760e01b815233600482015260240161043a565b600580546001600160a01b038381166001600160a01b0319831681179093556040519116919082907f8be0079c531659141344cd1fd0a4f28419497f9722a3daafe3b4186f6b6457e090600090a35050565b6001600160a01b0382166105e45760405163ec442f0560e01b81526000600482015260240161043a565b6105f0600083836106c9565b5050565b6001600160a01b03841661061e5760405163e602df0560e01b81526000600482015260240161043a565b6001600160a01b03831661064857604051634a1406b160e11b81526000600482015260240161043a565b6001600160a01b03808516600090815260016020908152604080832093871683529290522082905580156104d657826001600160a01b0316846001600160a01b03167f8c5be1e5ebec7d5bd14f71427d1e84f3dd0314c0f7b2291e5b200ac8c7c3b925846040516106bb91815260200190565b60405180910390a350505050565b6001600160a01b0383166106f45780600260008282546106e99190610999565b909155506107669050565b6001600160a01b038316600090815260208190526040902054818110156107475760405163391434e360e21b81526001600160a01b0385166004820152602481018290526044810183905260640161043a565b6001600160a01b03841660009081526020819052604090209082900390555b6001600160a01b038216610782576002805482900390556107a1565b6001600160a01b03821660009081526020819052604090208054820190555b816001600160a01b0316836001600160a01b03167fddf252ad1be2c89b69c2b068fc378daa952ba7f163c4a11628f55a4df523b3ef836040516107e691815260200190565b60405180910390a3505050565b60006020808352835180602085015260005b8181101561082157858101830151858201604001528201610805565b506000604082860101526040601f19601f8301168501019250505092915050565b80356001600160a01b038116811461085957600080fd5b919050565b6000806040838503121561087157600080fd5b61087a83610842565b946020939093013593505050565b60008060006060848603121561089d57600080fd5b6108a684610842565b92506108b460208501610842565b9150604084013590509250925092565b6000602082840312156108d657600080fd5b6108df82610842565b9392505050565b6000602082840312156108f857600080fd5b5035919050565b6000806040838503121561091257600080fd5b61091b83610842565b915061092960208401610842565b90509250929050565b600181811c9082168061094657607f821691505b60208210810361096657634e487b7160e01b600052602260045260246000fd5b50919050565b634e487b7160e01b600052601160045260246000fd5b80820281158282048414176103755761037561096c565b808201808211156103755761037561096c56fea2646970667358221220ff8b1659cc30ef6ff15f2d181b9a6f69113dafee0df87bf7899da616280d553164736f6c63430008180033","linkReferences":{}},"methodIdentifiers":{"AMOUNT()":"d1789176","allowance(address,address)":"dd62ed3e","approve(address,uint256)":"095ea7b3","balanceOf(address)":"70a08231","decimals()":"313ce567","mint(uint256)":"a0712d68","name()":"06fdde03","owner()":"8da5cb5b","renounceOwnership()":"715018a6","symbol()":"95d89b41","totalSupply()":"18160ddd","transfer(address,uint256)":"a9059cbb","transferFrom(address,address,uint256)":"23b872dd","transferOwnership(address)":"f2fde38b"},"id":26}